:020000020000FC
:020000003FC0FF
:020034003CC0CE
:100080000E94FA000E944500FFCF08E00093810023
:1000900005E008600093810002E000936F000DE32B
:1000A0000093890008E000938800789408950E94E6
:1000B0006A000F931F932F9301E00E943D0100E817
:1000C0000E943D010E94BC000E94DF002F911F9101
:1000D0000F911895509A58980E9490010E94900193
:1000E00050980E94A6000E94A90022D0322E20D053
:1000F000422E1ED027FB122E1BD0222E19D0522E9C
:100100002FE71222112D022D2AE030E00E949801E3
:10011000162C282C132D042D2AE030E00E94980183
:10012000362C482C042D053008F408953394089596
:1001300018E00E94A6000E94A9000E94890109B14E
:100140000170220F202B1A95A1F708954899FECF30
:100150000895489BFECF0895FF921F931AE0FF2455
:10016000011B10F0F394FCCF010FF2940F291F91A3
:10017000FF900895543A200000E011E00E941E0113
:10018000F0E0EAEB0E942E011EF40DE20E945601FF
:10019000012D0E94AC000E9410010EE20E94560147
:1001A000022D10E3010F0E9456010FED0E9456012F
:1001B00003E40E945601089552483A20000001E0ED
:1001C00011E00E941E01F0E0ECED0E942E01032DD3
:1001D000043658F40E94AC000E94100105E20E940F
:1001E00056010895313030250000F0E0E2EF0E9422
:1001F0002E01089507EF01B90E9490010E9490011D
:1002000002E00E943D0108E20E943D010EE00E94D2
:100210003D0101E00E943D0100E80E943D0108957A
:100220001F93102F02950F70005D0E945601012F41
:100230000F70005D0E9456011F910895003031F447
:100240001F701068012F0E943D010895013029F4AC
:100250001F70106C012F0E943D010895FF93EF93D2
:100260000F93EE0FFF1F0591003019F00E94560109
:10027000FACF0F91EF91FF9108951F930E946F01A4
:10028000102F107F12B900000000129A0000000029
:1002900012980E9489010295007F02B9129A00000B
:1002A000000012980E9489011F9108951F930E94D7
:1002B0006F01102F107F116012B90000129A000018
:1002C00012980E9489010295007F016002B9000026
:1002D000129A000012980E9489011F9108950F93AD
:1002E00007E001B902EF02B90000129A0000000015
:1002F00000B112980000129A00000000129800004D
:100300000078003891F307EF01B900E002B90F91CE
:1003100008950F9300E500000A95E9F70F910895FD
:100320000F930AEF0E9489010A95E1F70F91089552
:1003300038018824992441E1661C771C4A9559F0BC
:10034000881C991C821A930A20F4820E931E8894AA
:08035000F3CF0894F1CF0895EA
:00000001FF
